{
  "contractName": "SimpleStorage",
  "abi": [
    {
      "anonymous": false,
      "inputs": [
        {
          "indexed": false,
          "internalType": "string",
          "name": "_message",
          "type": "string"
        }
      ],
      "name": "StorageSet",
      "type": "event"
    },
    {
      "constant": true,
      "inputs": [],
      "name": "storedBool",
      "outputs": [
        {
          "internalType": "bool",
          "name": "",
          "type": "bool"
        }
      ],
      "payable": false,
      "stateMutability": "view",
      "type": "function"
    },
    {
      "constant": true,
      "inputs": [],
      "name": "storedData",
      "outputs": [
        {
          "internalType": "uint256",
          "name": "",
          "type": "uint256"
        }
      ],
      "payable": false,
      "stateMutability": "view",
      "type": "function"
    },
    {
      "constant": false,
      "inputs": [
        {
          "internalType": "uint256",
          "name": "x",
          "type": "uint256"
        }
      ],
      "name": "set",
      "outputs": [],
      "payable": false,
      "stateMutability": "nonpayable",
      "type": "function"
    },
    {
      "constant": false,
      "inputs": [
        {
          "internalType": "bool",
          "name": "x",
          "type": "bool"
        }
      ],
      "name": "setBool",
      "outputs": [],
      "payable": false,
      "stateMutability": "nonpayable",
      "type": "function"
    },
    {
      "constant": true,
      "inputs": [
        {
          "internalType": "uint256",
          "name": "offset",
          "type": "uint256"
        }
      ],
      "name": "getValueWithOffset",
      "outputs": [
        {
          "internalType": "uint256",
          "name": "",
          "type": "uint256"
        }
      ],
      "payable": false,
      "stateMutability": "view",
      "type": "function"
    },
    {
      "constant": true,
      "inputs": [
        {
          "internalType": "uint256",
          "name": "offset",
          "type": "uint256"
        },
        {
          "internalType": "uint256",
          "name": "multiplier",
          "type": "uint256"
        }
      ],
      "name": "getValueWithOffsetAndMultiplier",
      "outputs": [
        {
          "internalType": "uint256",
          "name": "",
          "type": "uint256"
        }
      ],
      "payable": false,
      "stateMutability": "view",
      "type": "function"
    }
  ],
  "bytecode": "0x608060405234801561001057600080fd5b506102f7806100206000396000f3fe608060405234801561001057600080fd5b50600436106100625760003560e01c80631a7aa876146100675780631e26fd33146100a95780632a1afcd9146100d957806360fe47b1146100f75780639d2da8ec14610125578063cefe183314610171575b600080fd5b6100936004803603602081101561007d57600080fd5b8101908080359060200190929190505050610193565b6040518082815260200191505060405180910390f35b6100d7600480360360208110156100bf57600080fd5b810190808035151590602001909291905050506101a1565b005b6100e1610226565b6040518082815260200191505060405180910390f35b6101236004803603602081101561010d57600080fd5b810190808035906020019092919050505061022c565b005b61015b6004803603604081101561013b57600080fd5b81019080803590602001909291908035906020019092919050505061029e565b6040518082815260200191505060405180910390f35b6101796102af565b604051808215151515815260200191505060405180910390f35b600081600054019050919050565b80600160006101000a81548160ff0219169083151502179055507f60cdc157ca4737a5d39a0e107532616e7bf6946e615228812c7f9bc9f81797a660405180806020018281038252601c8152602001807f426f6f6c65616e2073746f726564207375636365737366756c6c79210000000081525060200191505060405180910390a150565b60005481565b806000819055507f60cdc157ca4737a5d39a0e107532616e7bf6946e615228812c7f9bc9f81797a66040518080602001828103825260198152602001807f446174612073746f726564207375636365737366756c6c79210000000000000081525060200191505060405180910390a150565b600081836000540102905092915050565b600160009054906101000a900460ff168156fea265627a7a72315820ce644cdc865e7cb2aa1db837f911375421d9a43f5d33511330273feefa48497464736f6c63430005100032",
  "source": "pragma solidity >=0.4.21 <0.6.0;\r\n\r\ncontract SimpleStorage {\r\n    event StorageSet(string _message);\r\n\r\n    uint public storedData;\r\n    bool public storedBool;\r\n\r\n    function set(uint x) public {\r\n        storedData = x;\r\n\r\n        emit StorageSet(\"Data stored successfully!\");\r\n    }\r\n\r\n    function setBool(bool x) public {\r\n        storedBool = x;\r\n\r\n        emit StorageSet(\"Boolean stored successfully!\");\r\n    }\r\n\r\n    /// @dev test view function that takes a parameter\r\n    function getValueWithOffset(uint offset)\r\n      public view\r\n      returns (uint)\r\n    {\r\n        return storedData + offset;\r\n    }\r\n\r\n    /// @dev test view function that takes a parameter\r\n    function getValueWithOffsetAndMultiplier(uint offset, uint multiplier)\r\n      public view\r\n      returns (uint)\r\n    {\r\n        return (storedData + offset) * multiplier;\r\n    }\r\n}",
  "sourcePath": "C:\\Users\\William\\Documents\\DEV\\exo Alyra\\exo-crowdsale\\Truffle\\simple-storage-truffle\\contracts\\SimpleStorage.sol",
  "compiler": {
    "name": "solc",
    "version": "0.5.16+commit.9c3226ce.Emscripten.clang"
  },
  "schemaVersion": "3.4.12",
  "updatedAt": "2023-02-24T02:07:09.117Z",
  "networkType": "ethereum",
  "devdoc": {
    "methods": {
      "getValueWithOffset(uint256)": {
        "details": "test view function that takes a parameter"
      },
      "getValueWithOffsetAndMultiplier(uint256,uint256)": {
        "details": "test view function that takes a parameter"
      }
    }
  },
  "userdoc": {
    "methods": {}
  }
}